:020000040000FA
:100000000C945E000C9486000C9486000C94860080
:100010000C9486000C9486000C9486000C94860048
:100020000C9486000C9486000C9486000C94A21903
:100030000C9486000C9486000C9486000C94860028
:100040000C9458190C9486000C9426190C940019E1
:100050000C9486000C9486000C9486000C94860008
:100060000C945E1A0C948600000000002400270007
:100070002A0000000000250028002B0004040404CE
:100080000404040402020202020203030303030342
:10009000010204081020408001020408102001021F
:1000A00004081020000000080002010000030407FB
:1000B00000000000000000008C1B7D1B11241FBEEF
:1000C000CFEFD8E0DEBFCDBF12E0A0E0B1E0E6ECBC
:1000D000F3E502C005900D92A63AB107D9F726E0E4
:1000E000A6EAB2E001C01D92AB33B207E1F710E01F
:1000F000CDE5D0E004C02197FE010E94BB27CC359E
:10010000D107C9F70E943C1D0C94D6290C9400001D
:10011000CF93DF9300D000D0CDB7DEB719821A821B
:100120001B821C8289819A81AB81BC818A3F9105A7
:10013000A105B10568F4000089819A81AB81BC8179
:100140000196A11DB11D89839A83AB83BC83EACF3D
:1001500080E00F900F900F900F90DF91CF91089556
:100160004F925F926F927F928F929F92AF92BF92C7
:10017000CF92DF92EF92FF920F931F93CF93F901EB
:100180000FEF1FEF980100831183228333834A010D
:100190005B01B3E0B694A79497948794BA95D1F78E
:1001A0006A017B0127E0C222DD24EE24FF249501B1
:1001B0008401C0E0063011052105310508F041C079
:1001C000C1113FC0DC01A00FB11F6C91412C512C1B
:1001D000320180169106A206B30649F470E00C2C99
:1001E00002C0759567950A94E2F726013701462FFC
:1001F00050E060FF17C0B901A801A3E0440F551FEC
:10020000661F771FAA95D1F7440E551E661E771EEE
:100210004082518262827382C1E00F5F1F4F2F4F75
:100220003F4FC8CFBA01759567954FEF441A540AEE
:10023000640A740A48E04416510461047104B9F672
:10024000ECCFCF911F910F91FF90EF90DF90CF9067
:10025000BF90AF909F908F907F906F905F904F90E6
:10026000089508950895AF92BF92CF92DF92EF92D2
:10027000FF920F931F93CF93DF936C017B018B0150
:10028000040F151FEB015E01AE18BF08C017D107A0
:1002900059F06991D601ED91FC910190F081E02D2A
:1002A000C6010995892B79F7C501DF91CF911F917F
:1002B0000F91FF90EF90DF90CF90BF90AF90089597
:1002C000FC01538D448D252F30E0842F90E0821B5C
:1002D000930B541710F0CF96089501970895FC01E1
:1002E000918D828D981761F0A28DAE0FBF2FB11D39
:1002F0005D968C91928D9F5F9F73928F90E0089591
:100300008FEF9FEF0895FC01918D828D981731F04A
:10031000828DE80FF11D858D90E008958FEF9FEF9E
:100320000895FC01918D228D892F90E0805C9F4F74
:10033000821B91098F739927089586E693E00E94A6
:10034000910121E0892B09F420E0822F0895FC011E
:10035000A48DA80FB92FB11DA35ABF4F2C91848D26
:1003600090E001968F739927848FA689B7892C9383
:10037000A089B1898C91837080648C93938D848DD6
:10038000981306C00288F389E02D80818F7D8083D9
:100390000895EF92FF920F931F93CF93DF93EC0199
:1003A00081E0888F9B8D8C8D98131AC0E889F9891C
:1003B000808185FF15C09FB7F894EE89FF8960831F
:1003C000E889F98980818370806480839FBF81E0A0
:1003D00090E0DF91CF911F910F91FF90EF900895E2
:1003E000F62E0B8D10E00F5F1F4F0F731127E02EBD
:1003F0008C8D8E110CC00FB607FCFACFE889F989F5
:10040000808185FFF5CFCE010E94A701F1CFEB8D52
:10041000EC0FFD2FF11DE35AFF4FF0829FB7F894C8
:100420000B8FEA89FB8980818062CFCFCF93DF93E6
:10043000EC01888D8823B9F0AA89BB89E889F989FC
:100440008C9185FD03C0808186FD0DC00FB607FC31
:10045000F7CF8C9185FFF2CF808185FFEDCFCE0164
:100460000E94A701E9CFDF91CF91089590E0FC01B0
:10047000EC55FF4F2491FC01E057FF4F3491FC01F4
:10048000E458FF4FE491EE23C9F0222339F02330E2
:1004900001F1A8F4213019F1223029F1F0E0EE0F3A
:1004A000FF1FEE58FF4FA591B4918FB7F894EC91D0
:1004B000611126C030953E233C938FBF08952730AD
:1004C000A9F02830C9F0243049F7809180008F7D51
:1004D00003C0809180008F7780938000DFCF84B548
:1004E0008F7784BDDBCF84B58F7DFBCF8091B0004B
:1004F0008F778093B000D2CF8091B0008F7DF9CFFD
:100500003E2BDACFCF93DF9390E0FC01E057FF4F13
:10051000249184589F4FFC0184918823D1F090E06E
:10052000880F991FFC01E859FF4FA591B491FC0178
:10053000EE58FF4FC591D49161110EC09FB7F8944A
:100540008C91E22FE0958E238C932881E223E8831F
:100550009FBFDF91CF9108958FB7F894EC91E22B74
:10056000EC938FBFF6CF3FB7F89480915A039091E8
:100570005B03A0915C03B0915D0326B5A89B05C009
:100580002F3F19F00196A11DB11D3FBFBA2FA92F12
:10059000982F8827BC01CD01620F711D811D911D0F
:1005A00042E0660F771F881F991F4A95D1F708957B
:1005B0008F929F92AF92BF92CF92DF92EF92FF9273
:1005C0004B015C010E94B3026B017C010E94B302EB
:1005D0006C197D098E099F09683E7340810591055C
:1005E000A8F321E0821A9108A108B10888EEC80E8C
:1005F00083E0D81EE11CF11C81149104A104B10414
:1006000029F7FF90EF90DF90CF90BF90AF909F9031
:100610008F90089520910E03260F3327331F213228
:100620003105ECF420913203FC0190E080E02430AD
:1006300069F082E00895A0910E032191AC0142512E
:100640005D4FA40FB52FB11D2C930196861798F31B
:1006500080910E03680F60930E0380E0089581E09F
:1006600008951092320381E0809334031092330393
:1006700061E082E10E94360261E083E10E9436027D
:10068000E9EBF0E080818E7F808380818D7F8083A5
:1006900088E48093B80085E48093BC000895CF93EC
:1006A000DF9391E09093ED028823B9F0C091B800F8
:1006B000D091BA008091BC008A7B8093BC0060E03E
:1006C00082E10E94360260E083E10E9436020E94CD
:1006D0003103D093BA00C093B800DF91CF91089551
:1006E0000895E091650380916403E81730F4F0E029
:1006F000E853FD4F808190E008958FEF9FEF0895BC
:1007000090916503809164032FEF3FEF981748F4B1
:10071000E92FF0E0E853FD4F208130E09F5F909398
:100720006503C90108958091640390916503891B55
:10073000990B0895CF92DF92EF92FF920F931F9340
:10074000CF93DF937C01CB018A012091C702222342
:1007500089F0EB016B01C40ED51ECC15DD0569F0E7
:100760006991D701ED91FC910190F081E02DC701D5
:100770000995F3CF642F0E940A03C801DF91CF913E
:100780001F910F91FF90EF90DF90CF900895CF933E
:10079000DF931F92CDB7DEB769832091C702222372
:1007A000F9F020916203203258F021E030E0FC01A2
:1007B0003383228390E080E00F90DF91CF91089502
:1007C00080916303E82FF0E0E955FD4F9981908314
:1007D0008F5F809363038093620381E090E0ECCFAE
:1007E00061E0CE0101960E940A03F7CFCF92DF921B
:1007F000EF92FF920F931F93CF93DF93D0916203F9
:1008000081E0D13208F09CC0C091A6020E94B302E0
:100810006B017C018091320381116CC082E0809376
:10082000320381E0809334038FEF80933103109281
:100830005603D0935503A7EAB2E0E5E3F3E080E086
:10084000D8138DC01092570380915703CC0FC82B3B
:10085000C093570380913303813009F084C0109214
:1008600033030E94B3026B017C0180915703809394
:10087000BB008091E9029091EA02A091EB02B09155
:10088000EC02892B8A2B8B2BA1F00E94B3020091E2
:10089000E9021091EA022091EB023091EC026C190E
:1008A0007D098E099F09061717072807390708F4DD
:1008B00042C08091BC0083FDD8CF85EC8093BC0002
:1008C0000E94B3026B017C0180913203823009F4F3
:1008D0004CC0809131038F3F09F469C0809131038E
:1008E000803209F466C080913103803309F463C01B
:1008F00084E026C08091E9029091EA02A091EB0287
:10090000B091EC02892B8A2B8B2B09F483CF0E94A8
:10091000B3020091E9021091EA022091EB023091BA
:10092000EC026C197D098E099F0906171707280725
:10093000390708F06FCF8091E8020E944F0385E0ED
:1009400010926303109262031092C702DF91CF915D
:100950001F910F91FF90EF90DF90CF9008959D91A0
:1009600091938F5F6DCF85EEA9CF8091E902909131
:10097000EA02A091EB02B091EC02892B8A2B8B2B1F
:1009800009F4A2CF0E94B3020091E9021091EA0299
:100990002091EB023091EC026C197D098E099F09C0
:1009A000061717072807390708F08ECFC4CF80E055
:1009B000C7CF82E0C5CF83E0C3CF90E080E0089549
:1009C0008F929F92AF92BF92CF92DF92EF92FF925F
:1009D0000F931F93CF93DF936A014801E70191E0E2
:1009E0009093C7028093A602109263031092620351
:1009F000E881F9810190F081E02DC70109958C0C07
:100A00009D1CC814D90459F0E881F9810190F08146
:100A1000E02DD6016D916D01CE010995F2CFCE0189
:100A20000E94F60390E080E0DF91CF911F910F913B
:100A3000FF90EF90DF90CF90BF90AF909F908F90FE
:100A40000895EF92FF920F931F93CF93DF9300D0FF
:100A5000CDB7DEB7FC01EF5BFE4F70813496E080CE
:100A6000F1804A83598302E010E020E030E0AE01DB
:100A70004F5F5F4F872F0E94E004892B51F08CEE6F
:100A80000F900F90DF91CF911F910F91FF90EF90FA
:100A9000089580E0F5CFEF92FF920F931F93CF93CD
:100AA000DF931F92CDB7DEB7FC01EF5BFE4F708185
:100AB0003496E080F180498301E010E020E030E0EE
:100AC000AE014F5F5F4F872F0E94E004892B49F0F2
:100AD0008CEE0F90DF91CF911F910F91FF90EF90CF
:100AE000089580E0F6CFEF92FF920F931F93AB0132
:100AF000FC01EB5BFE4FE080F1808F5B9E4F06E0D8
:100B000010E020E030E060EBFC0180810E94E00416
:100B1000892B31F08CEE1F910F91FF90EF9008958B
:100B200080E0F9CF61E0FC0180810C9436024F92A5
:100B30005F926F927F928F929F92AF92BF92CF926D
:100B4000DF92EF92FF920F931F93CF93DF93D82FF3
:100B50006A01480181E08093C702D093A6021092F7
:100B6000630310926203D701ED91FC910190F08133
:100B7000E02DC7010995C7010E94F6030E94B30248
:100B80002B013C0180913203811166C0C82D81E0A8
:100B900080933203809334039FEF9093310310923C
:100BA0005603980D909355038093570380915703F4
:100BB000DD0FD82BD093570380913303813009F098
:100BC00086C0109233030E94B3022B013C01809136
:100BD00057038093BB008091E9029091EA02A091B3
:100BE000EB02B091EC02892B8A2B8B2BA1F00E9497
:100BF000B3020091E9021091EA022091EB023091D8
:100C0000EC02641975098609970906171707280762
:100C1000390708F442C08091BC0083FDD8CF85EC31
:100C20008093BC000E94B3022B013C0180913203EF
:100C3000813009F44EC0809156038C1710F4C09196
:100C40005603E5E3F3E0A8ECB2E080E08C1751F145
:100C500091919D938F5FFACF8091E9029091EA0282
:100C6000A091EB02B091EC02892B8A2B8B2B09F41B
:100C700089CF0E94B3020091E9021091EA0220910B
:100C8000EB023091EC026419750986099709061781
:100C900017072807390708F075CF8091E8020E94EE
:100CA0004F03C0E010926503C09364038C0C9D1C3D
:100CB000C814D90481F1D701ED91FC910284F38528
:100CC000E02DC7010995F60181936F01F1CF85EE03
:100CD000A7CF8091E9029091EA02A091EB02B09136
:100CE000EC02892B8A2B8B2B09F4A0CF0E94B30234
:100CF0000091E9021091EA022091EB023091EC029E
:100D0000641975098609970906171707280739070F
:100D100008F08CCFC2CF90E080E0DF91CF911F919F
:100D20000F91FF90EF90DF90CF90BF90AF909F908A
:100D30008F907F906F905F904F9008952F923F9289
:100D40004F925F926F927F928F929F92AF92BF92DB
:100D5000CF92DF92EF92FF920F931F93CF93DF9387
:100D6000CDB7DEB72F970FB6F894DEBF0FBECDBF5D
:100D70009C878B876D875F874E8739011701280114
:100D80002F82388649865A8610E000E0EE24E394EC
:100D9000F12C0A151B0509F461C09E01295F3F4F24
:100DA000B201A1018E859F850E94B0004F815885B8
:100DB00069857A854F3F2FEF52076207720709F462
:100DC0009CC0DB01CA018C549F4FAF4FBF4FE6E080
:100DD000B695A79597958795EA95D1F7880F991FAE
:100DE000880F991F87509E4F21E0FC0180819181DF
:100DF000A281B381892B8A2B8B2B09F420E0FD85FE
:100E0000F2137BC01A012B0133E0569447943794B8
:100E100027943A95D1F7DB01CA0187709927AA2751
:100E2000BB2726E0221631044104510468F4F30183
:100E3000E20DF31D970102C0220F331F8A95E2F7DE
:100E4000C9019081892B80831A012B013FEF231A5E
:100E5000330A430A530A0F5F1F4F9BCFB12CF40193
:100E60002082318242825382B1102DC0B3018B8522
:100E70009C850E947305B82E811125C0EB85FC85E9
:100E8000EB5BFE4FE080F180EB85FC85EF5BFE4F76
:100E900006E010E020E030E0AE014F5F5F4F60EB16
:100EA00080810E949705892B11F09CEEB92EF301E9
:100EB000DE011196C301069631912D91321320C0A7
:100EC000E817F907C9F78B2D2F960FB6F894DEBFF8
:100ED0000FBECDBFDF91CF911F910F91FF90EF908B
:100EE000DF90CF90BF90AF909F908F907F906F904A
:100EF0005F904F903F902F9008952EECB22EAFCF81
:100F00008EECB82EE0CFCF92DF92EF92FF920F934C
:100F10001F93CF93DF9300D000D0CDB7DEB76A0127
:100F2000FC01EB5BFE4FE080F1808F5B9E4F04E0A5
:100F300010E020E030E0AE014F5F5F4FFC018081A8
:100F40000E94970549815A8154274527542770E00C
:100F500060E0762F652F542F44272B81422B762F6C
:100F6000652F542F44272C81422BF6014083518357
:100F700062837383892B71F480E00F900F900F9040
:100F80000F90DF91CF911F910F91FF90EF90DF9025
:100F9000CF9008958CEEF1CFCF92DF92EF92FF9237
:100FA0000F931F93CF93DF9300D0CDB7DEB76A01C5
:100FB000FC01EB5BFE4FE080F1808F5B9E4F02E017
:100FC00010E020E030E0AE014F5F5F4FFC01808118
:100FD0000E94970529813A81322723273227F6017B
:100FE00031832083892B61F480E00F900F90DF9193
:100FF000CF911F910F91FF90EF90DF90CF900895C8
:101000008CEEF3CFEF92FF920F931F93CF93DF936A
:1010100000D0CDB7DEB78C017A016330710509F4D9
:1010200049C090F46130710509F162307105E1F158
:10103000F80181A992A9A3A9B4A9F701808391839A
:10104000A283B38380E049C06630710588F7AE01A2
:101050004F5F5F4F64E60E94CC0781113EC029813B
:1010600080E0922F990FB0E0A0E0E7CFAE014F5F94
:101070005F4F64E40E94CC0781112FC0998120E06A
:10108000392F330FA90170E060E0232BD1F0F70175
:101090004083518362837383F80145AB56AB67ABE2
:1010A00070AF91E096A319C0FC0181AD92ADA3ADE4
:1010B000B4ADC3CFFC01FD9680819181A281B38143
:1010C000BCCFF80145A956A967A970ADF7014083C7
:1010D000518362837383F80116A20F900F90DF9102
:1010E000CF911F910F91FF90EF9008958F929F9253
:1010F000AF92BF92CF92DF92EF92FF920F931F9326
:10110000CF93DF9300D0CDB7DEB7962ED42E822EAC
:10111000FC01EF5BFE4FC0805C012BEBA21A2EEFAF
:10112000B20AF501E080F18001E010E020E030E05B
:10113000AE014E5F5F4F8C2D0E949705892BA9F45D
:101140002A812D2128292A83F501E080F180298335
:1011500001E010E020E030E0AE014F5F5F4F692D0D
:101160008C2D0E94E004892B81F08CEE0F900F9063
:10117000DF91CF911F910F91FF90EF90DF90CF9073
:10118000BF90AF909F908F90089580E0EFCFEF9247
:10119000FF920F931F93FC01EB5BFE4FE080F18009
:1011A0008F5B9E4F01E010E020E030E0FC01808189
:1011B0000E949705892B31F08CEE1F910F91FF90C3
:1011C000EF90089580E0F9CFEF92FF920F931F9375
:1011D000CF93DF931F92CDB7DEB77C0100E041E0F3
:1011E0006BE0C7010E944B05182F40E06BE0C70180
:1011F0000E944B05182BAE014F5F5F4F63E1C701A3
:101200000E94C708812B0F5F9981977061F00330AE
:1012100061F0882321F30F90DF91CF911F910F91FF
:10122000FF90EF9008950330B1F784EFF4CF9F92D1
:10123000AF92BF92CF92DF92EF92FF920F931F93E4
:10124000CF93DF931F92CDB7DEB77C015B016A01BC
:10125000922E198241E06FEF0E944B05182F40E05B
:1012600060E0C7010E944B05182B40E06FEFC701FB
:101270000E944B05182B992031F0A5016BECC7019A
:101280000E94C708182B002341F0AE014F5F5F4F4B
:101290006EEEC7010E94C708182B41E06FEFC7012F
:1012A0000E944B05182B41E060E0C7010E944B05EE
:1012B000182B40E06FEFC7010E944B0599819F7E7C
:1012C000F6019083812B0F90DF91CF911F910F91A9
:1012D000FF90EF90DF90CF90BF90AF909F900895D8
:1012E0000F931F93CF93DF931F92CDB7DEB78A0181
:1012F000AE014F5F5F4F613081F060E50E94C7082B
:10130000811105C099819F5F990FF80190830F901B
:10131000DF91CF911F910F91089560E7EFCFCF92AA
:10132000DF92EF92FF921F93CF93DF931F92CDB77F
:10133000DEB77C0140E063E80E944B05182F811165
:1013400017C0D12CC12CAE014F5F5F4F63E8C701BE
:101350000E94C708182F898181110AC0111108C085
:101360008FEFC81AD80A88ECC816D10461F719EFB4
:1013700041E063E8C7010E944B05812B0F90DF918C
:10138000CF911F91FF90EF90DF90CF900895CF9273
:10139000DF92EF92FF920F931F93CF93DF931F92F1
:1013A000CDB7DEB77C0110E000E06C018EECC80E1A
:1013B000D11CF6018081AE014F5F5F4F8430A9F4EC
:1013C00063E1C7010E94C7089981292F277098718E
:1013D00011F58823D9F00F90DF91CF911F910F91D4
:1013E000FF90EF90DF90CF90089564E1C7010E94D5
:1013F000C7088111F0CF998190FDEDCF0F5F1F4F8E
:10140000083C110531F00E948800D3CF2430B1F799
:10141000E2CF89EFE0CF8AEFDECFCF93DF93EC010D
:10142000462F416060E00E944B05811111C0CE0142
:101430000E94C70981110CC0CE010E94E4088111ED
:1014400007C040E060E0CE01DF91CF910C944B05E6
:10145000DF91CF9108950F931F93CF93DF931F9246
:10146000CDB7DEB78B011982AE014F5F5F4F61E0F0
:101470000E94C708811116C0998194FB332730F967
:10148000F801308393FB332730F9328392FB332703
:1014900030F9318396FB222720F92383991F99275E
:1014A000991F94830F90DF91CF911F910F91089511
:1014B0002F923F924F925F926F927F928F929F9264
:1014C000AF92BF92CF92DF92EF92FF921F93CF9392
:1014D000DF93CDB7DEB72B970FB6F894DEBF0FBE04
:1014E000CDBF6C011A011B861F821E82623009F07B
:1014F0006EC0AE01465F5F4F60E00E947009182F1A
:10150000811108C0AE01455F5F4F66E4C6010E94CD
:10151000C708182FAA85B0E020E03FE24AE350E078
:101520000E9468262B013C0124EF420E21E0521E4E
:10153000611C711CCB84D12CF12CE12C8FEFC81ACB
:10154000D80AE80AF80A98EE892E93E0992EA12C81
:10155000B12CC301B201A50194010E94B226CA01B7
:10156000B901A70196010E948B276B017C01C30181
:10157000B20120ED37E040E050E00E94B226C70102
:10158000B601620F731F841F951FA50194010E946D
:10159000B226F1012083318342835383812F2B961E
:1015A0000FB6F894DEBF0FBECDBFDF91CF911F9174
:1015B000FF90EF90DF90CF90BF90AF909F908F9073
:1015C0007F906F905F904F903F902F900895633081
:1015D00009F043C0AE01465F5F4F60E00E947009B2
:1015E000182F20E030E0A9018111D3CFAE01465F72
:1015F0005F4F60E0C6010E947009182F811108C07A
:10160000AE014A5F5F4F61E5C6010E94CC07182F0B
:10161000EE81FF81AA85B0E020E03FE24AE350E09E
:101620000E9468262B013C0124EF420E21E0521E4D
:10163000611C711C6F01DD24F12CE12C04C0CC0C69
:10164000DD1CEE1CFF1CFA95D2F78FEFC81AD80AE2
:10165000E80AF80AEE24FF2476CFBE016F5F7F4FC1
:101660000E942B0A8C81882351F1AE01465F5F4FA7
:1016700060E0C6010E947009182FF12CE12C811145
:101680001BC0AE014A5F5F4F61E5C6010E94CC07F7
:10169000182F2E813F81C9019927B0E0A0E004C036
:1016A000880F991FAA1FBB1F3A95D2F70196A11D5B
:1016B000B11D7C01112329F0D12CC12C25C0F12CA6
:1016C000E12CAE01465F5F4F61E0C6010E947009E8
:1016D000182F8111F1CFAE01485F5F4F61E7C6015E
:1016E0000E94CC07182F28853985C9019927B0E0B9
:1016F000A0E004C0880F991FAA1FBB1F3A95D2F71C
:101700000196A11DB11D6C01AA85B0E020E03FE269
:101710004AE350E00E9468262B013C01E4EF4E0EA4
:10172000E1E05E1E611C711C88EE882E83E0982E1D
:10173000A12CB12CC301B201A50194010E94B226D3
:10174000D601AE19BF090E9468260FCF4F925F9253
:101750006F927F92BF92CF92DF92EF92FF920F93A0
:101760001F93CF93DF9300D000D0CDB7DEB78A01AF
:10177000AE014F5F5F4F0E94580AB82E81112AC0F8
:1017800069817A818B819C8128EE422E23E0522E42
:10179000612C712CA30192010E94B22669017A0189
:1017A0009B01AC01AFEFBFEF0E9468266C507E4FEB
:1017B0008F4F9F4FA30192010E94B2267601DD2434
:1017C000CC24C20ED31EE41EF51EF801C082D182C5
:1017D000E282F3828B2D0F900F900F900F90DF918C
:1017E000CF911F910F91FF90EF90DF90CF90BF901E
:1017F0007F906F905F904F9008955F926F927F926D
:101800008F929F92AF92BF92CF92DF92EF92FF9210
:101810000F931F93CF93DF93CDB7DEB761970FB6CA
:10182000F894DEBF0FBECDBF7C018B01FC01808927
:10183000FB018083AE014A5F5F4F68EFC7010E94E2
:10184000CC07582E81113AC1AE014F5F5F4F64E063
:10185000C7010E948307582E811130C12E813F811C
:101860002115310569F050E040E069817A818B8172
:101870009C810E94B226F8012683378340875187D6
:10188000F80186819781A085B185F701868B978BBA
:10189000A08FB18FF8011286AE014F5F5F4F60E2FB
:1018A000C7010E94CC07582E811108C189819A81F5
:1018B000009709F01AC1F701858D968DA78DB0A10B
:1018C000F80185879687A787B08BF701128EAE0146
:1018D0004F5F5F4F68E2C7010E94CC07582E81110D
:1018E000EDC089819A819F708115F8E09F0708F00B
:1018F00090514AEF489F9001499F300D1124C90132
:10190000330FAA0BBB0BF801818B928BA38BB48B8B
:101910005801F1E2AF0EB11C470125E2820E911C85
:10192000380185E1680E711CD12CC12CA501B601CE
:10193000C7010E940208582E8111C0C0F401819194
:101940004F01F30181933F01FFEFCF1ADF0A24E03B
:10195000A20EB11C86E0C816D10441F7AE014F5F5C
:101960005F4F61E0C7010E94C708582E8111A6C0D1
:101970008981F701E35EFE4F808387FFCAC081E063
:10198000F80181AFF80181ADF701E75BFF4F80837C
:1019900080ED97E0A0E0B0E08A879B87AC87BD87A9
:1019A0001E821F821886198686E39BE0A0E0B0E0C5
:1019B000F80182839383A483B583BE016F5F7F4F59
:1019C000C7010E942B0A582E811178C0898181118C
:1019D00007C08A81811104C08B81882309F43EC02D
:1019E000AE01465F5F4F62E0C7010E94580A811155
:1019F000C1C089818823A9F08A859B85AC85BD8576
:101A0000825B9D4FAF4FBF4FF8014281538164818C
:101A10007581840F951FA61FB71F82839383A483AC
:101A2000B5838B81882309F477C08A859B85AC8533
:101A3000BD858E549D4FAF4FBF4F880F991FAA1F72
:101A4000BB1FF8014281538164817581840F951F0A
:101A5000A61FB71F82839383A483B5838C818111D2
:101A600068C08D81882301F1AE01425F5F4F64E061
:101A7000C7010E94580A8E849F84A888B988F6E21C
:101A80008F0EF2E09F1EA11CB11CF8014281538110
:101A900064817581480D591D6A1D7B1D42835383E6
:101AA00064837583811166C0F80182819381A4816A
:101AB000B581F701828B938BA48BB58B852D6196B5
:101AC0000FB6F894DEBF0FBECDBFDF91CF911F914F
:101AD0000F91FF90EF90DF90CF90BF90AF909F90CD
:101AE0008F907F906F905F90089533E0880F991FDB
:101AF0003A95E1F7B0E0A0E0F80185879687A787DF
:101B0000B08BF701858F968FA78FB0A381E0828F6E
:101B1000DECEF80111AE36CF8A81882309F49ECF3C
:101B20008A859B85AC85BD858C569D4FAF4FBF4F39
:101B300088CFAE014A5F5F4F63E0C7010E94580A39
:101B40008E809F80A884B984F4E98F0EF2E09F1EF6
:101B5000A11CB11CF8014281538164817581480D3B
:101B6000591D6A1D7B1D42835383648375838823BB
:101B700009F477CF582EA2CF2F923F924F925F92C7
:101B80006F927F928F929F92AF92BF92CF92DF928D
:101B9000EF92FF920F931F93CF93DF93CDB7DEB7F2
:101BA00069970FB6F894DEBF0FBECDBF00ED17E00A
:101BB00020E030E00B871C872D873E871F86188A20
:101BC000198A1A8A40322EE4520761057105E0F441
:101BD0005CEFB52E8B2D69960FB6F894DEBF0FBE65
:101BE000CDBFDF91CF911F910F91FF90EF90DF90CC
:101BF000CF90BF90AF909F908F907F906F905F90AD
:101C00004F903F902F9008954E8B5F8B688F798F08
:101C10008C01BE016A5F7F4F0E942B0AB82E811192
:101C2000D9CFCE88DF88E88CF98C88EEC81A88E096
:101C3000D80AE108F1088E81811106C08F818111D7
:101C400003C088858823C1F1AE01455F5F4F62E024
:101C5000C8010E94580A81110AC18E81882391F01F
:101C60008B859C85AD85BE85825B9D4FAF4FBF4FF9
:101C70008C159D05AE05BF0508F0AACFC81AD90A74
:101C8000EA0AFB0A8885882309F471C08B859C8544
:101C9000AD85BE858E549D4FAF4FBF4F880F991FA6
:101CA000AA1FBB1F8C159D05AE05BF0508F090CF80
:101CB000C81AD90AEA0AFB0A89858823D9F0AE0135
:101CC000415F5F4F63E0C8010E94580A4F85588901
:101CD00069897A894C565D4F6F4F7F4F4C155D0572
:101CE0006E057F0508F074CF8111C1C0C41AD50AF2
:101CF000E60AF70A8A85882309F46CCFBE016F5F74
:101D00007F4FC8010E942B0A8C818823E9F1AE0124
:101D10004B5E5F4F60E0C8010E947009B82E8111D0
:101D20001CC0AE014D5E5F4F61E5C8010E94CC074B
:101D3000B82E8B899C891C013324512C412C04C062
:101D4000220C331C441C551C9A95D2F79FEF291A7C
:101D5000390A490A590ABB20C9F08E899F89A88D82
:101D6000B98DF801828B938BA48BB58B33CF8F8188
:101D7000882309F4A1CF8B859C85AD85BE858C56C3
:101D80009D4FAF4FBF4F8ECF312C212CAE014B5EFC
:101D90005F4F61E0C8010E947009B82E8111DDCF4C
:101DA000A6E2CA1AA2E0DA0AE108F108AD89B0E0B9
:101DB00020E03FE24AE350E00E9468264B015C01CC
:101DC000B4EF8B0EB1E09B1EA11CB11CA8EEB3E0DA
:101DD000A70196010E9468262B013C01C501B401B0
:101DE00020ED37E040E050E00E94B226420E531E44
:101DF000641E751EC501B40128EE33E040E050E0DA
:101E00000E94B226C301B2010E94B226220E331EE6
:101E100021143104E1F04101B12CA12CE1E08E1A32
:101E20009108A108B10890E080E0B501A401442721
:101E3000452B462B472B31F0B694A7949794879463
:101E40000196F3CF982F88271C01280C391CA1017B
:101E500061E7C8010E942105B82E81117ECFF801EB
:101E6000E153FF4FC082D182E282F38276CFB82E57
:101E7000B1CE7F928F929F92AF92BF92CF92DF921C
:101E8000EF92FF920F931F93CF93DF931F92CDB7E3
:101E9000DEB77C015B016A01722E4C0183EE881A69
:101EA0008EEF980AF4011081198241E061E0C701C8
:101EB0000E944B0581114AC060E4C7010E940D0ACF
:101EC000811144C0F1E07F121AC000E021E0AE01B0
:101ED0004F5F5F4FB501C7010E941709882389F042
:101EE0000F90DF91CF911F910F91FF90EF90DF90B6
:101EF000CF90BF90AF909F908F907F900895F50105
:101F0000108242E061E0C7010E944B05811124C0AC
:101F100060E0C7010E940D0A81111EC0F1E07F122E
:101F200018C001E020E0A601BE016F5F7F4FC7012E
:101F30000E9417098111D4CF412F61E0C7010E948F
:101F40004B058111CDCFF4011083CACFF50110826A
:101F5000C7CFF6011082F0CFF601F9CF2F923F9252
:101F60004F925F926F927F928F929F92AF92BF92A9
:101F7000CF92DF92EF92FF920F931F93CF93DF9355
:101F8000CDB7DEB7EC970FB6F894DEBF0FBECDBF6E
:101F90006C015B01DC0150961C9241E060E80E94FC
:101FA0004B0541E06FEFC6010E944B0540E060E049
:101FB000C6010E944B05F601E95DFE4F408161E9D3
:101FC000C6010E944B0541E060E0C6010E944B053E
:101FD00040E06FEFC6010E944B0540E060E8C6019B
:101FE0000E944B0541E060E0C6010E944B05811153
:101FF00016C091E09983412C512C3201BFEF4B1A4E
:102000005B0A6B0A7B0A998190FF2AC08111B6C2D4
:10201000E8EC4E16510461047104D1F489EFEC969A
:102020000FB6F894DEBF0FBECDBFDF91CF911F91E9
:102030000F91FF90EF90DF90CF90BF90AF909F9067
:102040008F907F906F905F904F903F902F9008956A
:10205000AE014F5F5F4F60E0C6010E94C708CECF60
:10206000F8EC4F16510461047104C1F28111D7CF0D
:10207000C6010E94C7098111D2CF83E0F601E15E5B
:10208000FE4F8083B696E080F1800CE010E020E007
:1020900030E0AE01465E5F4F64E1349780810E947C
:1020A0009705892B11F08CEEBACFD50156961C926C
:1020B0005697F50110821182128213826CA170E092
:1020C000762F66272DA1620F711D14961D921D9209
:1020D0001D921C921797E9A1F0E0FE2FEE27FF0F4B
:1020E0002F01712C612C1C964D925D926D927C9209
:1020F0001F978BA190E0982F8827990F8C0130E0D3
:1021000020E050960D931D932D933C9353970C8D87
:1021100010E0102F00272D8D7801E20EF11CFCAE8F
:10212000EBAE5596FC92EE9254979A8CD601A75C32
:10213000BE4F2D913C9111975B978C90283E03E008
:102140003007E9F1629FC001639F900D729F900D6F
:1021500011248C509E4F68EE73E00E94A727D60191
:102160005D96ED90FD900D911C9190975A962C9153
:10217000222329F12BAD3CAD2E9DA0012F9D500DAA
:102180003E9D500D1124452F5527E417F50741F4C6
:1021900060EE7AE8882009F4E3C068EB72E212C0CE
:1021A0009F01DB010E94D42683017F01E41AF50A16
:1021B00001091109A80197010E94B226B9018820DE
:1021C00009F4CEC0CB019695879596958795D50154
:1021D00019969C938E9318976295660F660F607C94
:1021E00057966C931FA61EA6892D90E07C0173E084
:1021F000F594E7947A95E1F7FAAEE9AE09AD0F7080
:10220000902E09F4B2C089AD8D7011E018AB853005
:1022100029F084EF800F843008F018AA41E06FEFB6
:10222000C6010E944B05811107C0AE01425D5F4FA0
:1022300066EBC6010E94CC079EA520E0392F330F24
:10224000790110E000E0E9AAFAAA0BAB1CAB8111FE
:1022500005C040E06FEFC6010E944B05F601EE5C41
:10226000FE4FE9A8FAA80BA91CA9E082F18202831B
:102270001383811178C1D60195968C90959788200B
:1022800009F47FC0F501E484F584068517855A9624
:102290008C9120E030E0A901882399F0A489B589C8
:1022A000F601258D368D478D50A10E9468269B0131
:1022B000AC0120583F4F4F4F5F4F232F342F452FF6
:1022C00055272E0D3F1D401F511FA8EEB3E00E9461
:1022D000682670588F4F9F4FBC0188279927F601B9
:1022E000E65DFE4F672B682B692B09F041C08EEA33
:1022F00097E8AFE8B2E080839183A283B3831EEABC
:10230000E12E17E8F12E0FE812E0EDAAFEAA0FABBE
:1023100018AFD5011B961C921E921A97AE01465D0E
:102320005F4F70E060E0C6010E9402084AA55BA50D
:102330006CA57DA5411551056105710559F0FF2476
:10234000F3940DA91EA92FA938AD401751076207B4
:10235000730708F0F12C8823A9F0212C312C07C138
:10236000F50171876087178A3DCF01E008AB56CF32
:1023700010821182128213821DAA1EAA1FAA18AEF1
:10238000C8CFF12CD60197963C90332009F4C5C0F4
:10239000AE014A5D5F4F62E070E0C6010E94020834
:1023A0004EA15FA168A579A541155105610571058B
:1023B00059F0EE24E39409A91AA92BA93CA94017C6
:1023C00051076207730708F0E12C212C90E081117E
:1023D00032C0D60198962C90222009F4A4C00BADEF
:1023E0001CAD0115110509F49AC0962D852D742D8B
:1023F0006627980150E040E00E94B22629013A0188
:10240000AE014F5F5F4F63E070E0C6010E940208BB
:1024100049815A816B817C814115510561057105A6
:1024200031F091E0441655066606770608F090E014
:10243000882309F479C0D5011B961C921E921A9725
:1024400080E0811002C0FF24F394F60136A1F3A6C8
:10245000F4E09F1609F4B0C021E0311120E0D6016C
:102460009C962C93311002C0EE24E394F601E5A66D
:10247000211001C091E0D6019E969C93F501808FBA
:102480009601265B3F4F99E1F901DE01119601901B
:102490000D929A95E1F7D5011896ED91FC91199757
:1024A00057969C9157971A966D917C911B971C9605
:1024B000ED90FD900D911C911F9750964D905D9061
:1024C0006D907C90539754964D915C9155971496CE
:1024D0008D909D90AD90BC9017978D829E82AF821B
:1024E000B886FA87E9877C876B87ED86FE860F873B
:1024F000188B498A5A8A6B8A7C8A5E8B4D8B988F9F
:10250000898F89E1FE013196D90101900D928A955A
:10251000E1F7C6010E94E40882CDE12C5ACF412C9C
:10252000512C32016DCF90E018A98FEF113009F4D2
:1025300088CF890D8330F0F026E0921639F139E02A
:10254000931621F189AD8D708830B1F041E0E41629
:1025500099F054E0951639F1913001F1F41601F13A
:102560009F2DEF2C68CF212C312C812CF12C90E069
:10257000E12C61CF85E065CF83E063CFB8EC4B16EB
:1025800051046104710409F04ACD48CD84E0811002
:102590005CCFF60136A121E023A75ECF82E0F7CF22
:1025A000E92E81E0F4CF82E081104FCF81E0D601A7
:1025B0009B968C93E12C82E021E051CFAF92BF92A9
:1025C000DF92EF92FF920F931F93CF93DF93CDB7DC
:1025D000DEB769970FB6F894DEBF0FBECDBF8C0192
:1025E0005B017C0183EEE81A8EEFF80AF701D080D8
:1025F00040EC61E0C8010E944B05811126C0BE017C
:102600006F5F7F4FC8010E94AE0F81111EC041E075
:102610006FEFC8010E944B05811117C0A50166EB41
:10262000C8010E94CC07811110C040E06FEFC801C3
:102630000E944B05811109C04D2D61E0C8010E9427
:102640004B05811102C0F701D08269960FB6F8944C
:10265000DEBF0FBECDBFDF91CF911F910F91FF90D5
:10266000EF90DF90BF90AF9008952F923F924F92DE
:102670005F926F927F928F929F92AF92BF92CF9212
:10268000DF92EF92FF920F931F93CF93DF93CDB71B
:10269000DEB7AC970FB6F894DEBF0FBECDBF1C01FE
:1026A0007FA36EA359A748A71F82188619861A868A
:1026B0001B861C861D861E86198A1A8AFC01E85D07
:1026C000FE4F20813181398F288FAC014F5E5E4FE4
:1026D0005B8F4A8FDA011C922C01BEEE4B1ABEEFC3
:1026E0005B0AF20110823C01FDEE6F1AFEEF7F0AD9
:1026F000D3011C92FC01EC5EFE4F108231961082D9
:102700003196108241E06FEF0E944B058B8B811157
:102710001DC140E06FE4C1010E944B058B8B81110C
:1027200015C14CE26EE4C1010E944B058B8B8111F7
:102730000DC140E06FEFC1010E944B058B8B8111F1
:1027400005C144EB66EBC1010E944B058B8B8111E7
:10275000FDC040E060E8C1010E944B058B8B8111F8
:10276000F5C020E0AE014E5E5F4FBE016F5E7F4F51
:10277000C1010E94390F8B8B8111E8C01F8218861E
:1027800019861A86F101E95EFE4FFD8FEC8F9E01DE
:10279000295F3F4F4901A3E0AA2EB12CC12CD12CB7
:1027A000E12CF12C87012A8D3B8DAF0160E0C10146
:1027B0000E949E068B8B8111C9C04F815885698507
:1027C0007A854C8B5D8B6E8B7F8BBE01615F7F4FFB
:1027D000C1010E94DE128B8B8111B8C08F85988950
:1027E000688D798D6817790708F0D3C0AA8DBB8DE5
:1027F0001C92F2011082D3011C9232961082319603
:102800001082319610828C899D89AE89BF898C5443
:102810009F4FAF4FBF4FE6E0B695A7959795879529
:10282000EA95D1F7880F991F880F991F87509E4FFF
:10283000FC0180819181A281B381892B8A2B8B2B12
:1028400091F42C893D894E895F892C3231054105EF
:10285000510548F42F5F3F4F4F4F5F4F2C8B3D8BFF
:102860004E8B5F8BD0CFAE01495F5F4F4A0173E063
:10287000A72EB12CC12CD12CEC88FD880E891F8984
:102880002A8D3B8D4C8D5D8D61E0C1010E949E06BD
:10289000811159C16F81788589859A856C8B7D8B73
:1028A0008E8B9F8BBE01615F7F4FC1010E94DE1244
:1028B000811149C18F859889A88DB98D11E063E098
:1028C000462E512C612C712CA817B90720F010E06E
:1028D000412C512C3201C12CD12C7601C39460C003
:1028E000D501C4010196A11DB11D8C8B9D8BAE8BB2
:1028F000BF8B86E0EAA5FBA5ACA5B02F01900D9299
:102900008A95E1F74E8C5F8C68A079A04AA35BA3FF
:102910006CA37DA36FC04E8C5F8C68A079A0AEA124
:10292000BFA14D925D926D927C921397E8A5F9A597
:102930001083F101EC5FFE4F81E0808332978C9130
:102940008083A8A5B9A58C91319680838B89AC969C
:102950000FB6F894DEBF0FBECDBFDF91CF911F91B0
:102960000F91FF90EF90DF90CF90BF90AF909F902E
:102970008F907F906F905F904F903F902F90089531
:10298000BEECBB8BE3CFEEECEB8BE0CFFEECFB8B36
:10299000DDCF10E0412C512C3201C12CD12C76011D
:1029A0008F859889288D398D8217930708F0B7CFC6
:1029B00046E0EA8DFB8D9E012F5F3F4FD9010190CC
:1029C0000D924A95E1F7E88DF98D8E1B9F0BAC01B6
:1029D00070E060E04AA35BA36CA37DA353E0452EA7
:1029E000512C612C712CB1016F5E7E4F7BA76AA7C1
:1029F0002CA7032F9E01255F3F4F4C895D896E896F
:102A00007F898C8D9D8D0E94B0008B849C84AD84C9
:102A1000BE847FEF87169706A706B70609F4B0CFE6
:102A2000D301C2010196A11DB11D8E8F9F8FA8A356
:102A3000B9A3D501C4018C549F4FAF4FBF4F36E0AF
:102A4000B695A795979587953A95D1F7880F991FD1
:102A5000880F991F87509E4F11E0FC018081918162
:102A6000A281B381892B8A2B8B2B09F410E0812F53
:102A700090E0B0E0A0E08C159D05AE05BF0509F023
:102A800082CFD501C40123E0B695A7959795879588
:102A90002A95D1F7B501A4014770552766277727F6
:102AA00086309105A105B10508F070CFEA8DFB8D48
:102AB000E80FF91F21E030E001C0220F4A95EAF744
:102AC0008081822B80836A8D7B8DC1010E9473057A
:102AD000811139C0BE01615F7F4FC1010E94DE12CA
:102AE000811131C08F859889288D398DAC01421BA9
:102AF000530B8217930711F450E040E070E060E060
:102B0000A88DB98DA817B90708F0EACE8AA19BA1B4
:102B1000ACA1BDA184179507A607B70708F0FBCEA7
:102B2000BE016F5F7F4FC1010E94730596E0FE01F9
:102B30003196D101AF5EBE4F01900D929A95E1F7AB
:102B4000882309F4ECCE8B8B01CFFC01019000208F
:102B5000E9F73197AF01481B590BBC0186E693E0BA
:102B60000C9433018F929F92AF92BF920F931F9359
:102B7000CF93DF93CDB7DEB7A1970FB6F894DEBF42
:102B80000FBECDBF19A2423008F44AE08E010F5D9E
:102B90001F4F842E912CB12CA12CA50194010E94D1
:102BA000B226E62FB901CA01EA30F4F4E05DD8019B
:102BB000EE938D01232B242B252B79F790E080E0D9
:102BC000109719F0CD010E94A515A1960FB6F894A3
:102BD000DEBF0FBECDBFDF91CF911F910F91BF9090
:102BE000AF909F908F900895E95CE1CF9F92AF9254
:102BF000BF92CF92DF92EF92FF920F931F93CF93EA
:102C0000DF93CDB7DEB7A0970FB6F894DEBF0FBE47
:102C1000CDBF6C012FEDC20ED11CF601A080F7E0F4
:102C2000F12CAF1609F4EEC0B62E8C0141E060E83D
:102C30000E944B05F82E41E06FEFC8010E944B0542
:102C4000F82A40E060E0C8010E944B05F82A46E0FF
:102C50006FEFC8010E944B05F82AAE01425E5F4F3C
:102C600063E8C8010E94C708F82A4E8D446063E8F3
:102C7000C8010E944B05F82A47E06FEFC8010E9487
:102C80004B05F82A41E061E8C8010E944B05F82A8B
:102C90000E948800F82A41E060E8C8010E944B05C4
:102CA000F82A21E0B212C1C0A0FC02C24BE664E9DE
:102CB000C8010E944B05E82EC8010E948F098E2989
:102CC000F82AAE01465E5F4F60E9C8010E948307A3
:102CD000F82A8A8D9B8DAC8DBD8D992EE89497F83E
:102CE00097FBEE24E0F844E264E9C8010E944B053A
:102CF000F82AC8010E948F09F82AAE01465E5F4F8C
:102D000060E9C8010E948307F82A8A8D9B8D2C8D6B
:102D10003D8D3C8B2D8B9E8B8F8B45E264E9C801EA
:102D20000E944B05F82AC8010E948F09F82AAE01BB
:102D3000465E5F4F60E9C8010E948307F82A8C8DC8
:102D40009D8D988F898F40E061E8C8010E944B05F6
:102D5000F82A46E06FEFC8010E944B05F82AAE0141
:102D6000425E5F4F63E8C8010E94C708F82A4E8D93
:102D70004B7F63E8C8010E944B05F82A41E06FEFE2
:102D8000C8010E944B05F82A41E060E0C8010E949A
:102D90004B05F82A40E06FEFC8010E944B05F82A66
:102DA00040E060E8C8010E944B05F82A59F5F1E0BF
:102DB000BF1699F0A1FC23C0F801E052FF4F8F8DA0
:102DC0008083319688A18083BE016F5F7F4FC801E9
:102DD0008E519F4F0E94CF2912C0A0FC10C0F80155
:102DE000EE5FFE4F90823196E082DE01549674963B
:102DF000035E1E4F8D9181930E171F07D9F7BA28D6
:102E0000F601B0828F2DA0960FB6F894DEBF0FBEEC
:102E1000CDBFDF91CF911F910F91FF90EF90DF9089
:102E2000CF90BF90AF909F900895A1FC41C142E028
:102E300064E9C8010E944B05E82EC8010E948F0971
:102E40008E29F82AAE01415E5F4F60E9C8010E94F9
:102E5000C708F82A4BE764E9C8010E944B05F82A25
:102E6000C8010E948F09F82AAE01405E5F4F60E9F9
:102E7000C8010E94C708F82A47E764E9C8010E9410
:102E80004B05F82AC8010E948F09F82AAE01465E58
:102E90005F4F60E9C8010E948307F82A4A8D5B8D65
:102EA0006C8D7D8DDB01CA0129E1B695A7959795BB
:102EB00087952A95D1F78983DB01CA0132E1B6955E
:102EC000A795979587953A95D1F78F778A83DB01F8
:102ED000CA01EBE0B695A79597958795EA95D1F746
:102EE0008F778B83DB01CA01F4E0B695A7959795A0
:102EF0008795FA95D1F78F778C83440F440F440F51
:102F000048774E8F48E764E9C8010E944B05F82ACC
:102F1000C8010E948F09F82AAE01465E5F4F60E942
:102F2000C8010E948307F82A8A8D9B8DAC8DBD8DC8
:102F3000AC01BD012DE176956795579547952A958A
:102F4000D1F72E8D240F2D83AC01BD0136E176958E
:102F50006795579547953A95D1F74F774E83AC01D2
:102F6000BD01EFE07695679557954795EA95D1F7BE
:102F70004F774F83292F2F772887AC01BD01769596
:102F80006795579547954F774987982F9295990F51
:102F9000990F90749E8F49E764E9C8010E944B0520
:102FA000F82AC8010E948F09F82AAE01465E5F4FD9
:102FB00060E9C8010E948307F82A8A8D9B8DAC8D39
:102FC000BD8DAC01BD012AE1769567955795479572
:102FD0002A95D1F72E8D240F2A87AC01BD0133E14C
:102FE00076956795579547953A95D1F74F774B87E3
:102FF000AC01BD01ECE07695679557954795EA954C
:10300000D1F74F774C87AC01BD01F5E07695679518
:1030100057954795FA95D1F74F774D87982F990F88
:10302000990F9C779E8F4AE764E9C8010E944B057F
:10303000F82AC8010E948F09F82AAE01465E5F4F48
:1030400060E9C8010E948307F82A8A8D9B8DAC8DA8
:10305000BD8DAC01BD012EE17695679557954795DD
:103060002A95D1F72E8D240F2E87AC01BD0137E1B3
:1030700076956795579547953A95D1F74F774F874E
:103080002A2F2F77288BAC01BD01E9E07695679553
:1030900057954795EA95D1F74F77498BF2E0B6956A
:1030A000A79597958795FA95D1F78F778A8B1B8A85
:1030B000E12C912C48CECF93DF93EC018091310627
:1030C00090913206009759F02091330630913406E2
:1030D0002C173D0720F081E0DF91CF910895BE01CC
:1030E0006F5F7F4F0E940229009789F0909332060C
:1030F00080933106D0933406C09333062091350671
:1031000030913606232B39F7FC011082E4CF80E0A2
:10311000E3CF0F931F93CF93DF9300D0CDB7DEB7EC
:1031200086E693E00E949101892B29F186E693E0DF
:103130000E946F0189831A8200913506109136062C
:103140000F5F1F4FC8010E945B18882349F320912D
:103150003106309132068091350690913606BE01D7
:103160006F5F7F4F820F931F0E94CF291093360607
:1031700000933506D5CF0F900F90DF91CF911F911F
:103180000F9108950E949D0181110C948918089552
:1031900085ED8093BC008091E9029091EA02A091B4
:1031A000EB02B091EC020796A11DB11D23E0B6958C
:1031B000A795979587952A95D1F72091BC0024FD76
:1031C00003C01092320308954091E9025091EA023F
:1031D0006091EB027091EC02452B462B472B69F373
:1031E0000097A105B10541F025E32A95F1F700000C
:1031F0000197A109B109E1CF8091E8020C944F0336
:103200001F920F920FB60F9211242F933F934F935B
:103210005F936F937F938F939F93AF93BF93EF933E
:10322000FF9386E693E00E94A701FF91EF91BF9183
:10323000AF919F918F917F916F915F914F913F914E
:103240002F910F900FBE0F901F9018951F920F9205
:103250000FB60F9211242F938F939F93EF93FF93A9
:10326000E0917603F09177038081E0917C03F09107
:103270007D0382FD1BC0908180917F038F5F8F73E0
:1032800020918003821741F0E0917F03F0E0EA593A
:10329000FC4F958F80937F03FF91EF919F918F91CA
:1032A0002F910F900FBE0F901F9018958081F4CF33
:1032B0001F920F920FB60F9211242F933F938F936B
:1032C0009F93AF93BF9380910F0490911004A091AE
:1032D0001104B09112043091590323E0230F2D37CC
:1032E00058F50196A11DB11D2093590380930F0439
:1032F00090931004A0931104B093120480915A0388
:1033000090915B03A0915C03B0915D030196A11DB8
:10331000B11D80935A0390935B03A0935C03B09319
:103320005D03BF91AF919F918F913F912F910F902E
:103330000FBE0F901F90189526E8230F0296A11D2F
:10334000B11DD2CF1F920F920FB60F9211242F935F
:103350003F934F935F936F937F938F939F93AF931D
:10336000BF93CF93DF93EF93FF9380915803C09166
:103370003704D0E087FF24C01092850010928400AB
:10338000809158038F5F8093580380915803082ED3
:10339000000C990B8C179D0724F4809158038C30F6
:1033A000C4F18091840090918500049680349C49FA
:1033B00008F47AC08091840090918500049676C0CC
:1033C00080915803082E000C990B8C179D07C4F6AA
:1033D000E09158038E2FEE0F990BFC01EE0FFF1FAB
:1033E000E80FF91FED5EFB4F808186FFC9CFE091AA
:1033F00058038E2FEE0F990BFC01EE0FFF1FE80F05
:10340000F91FED5EFB4F808160E08F730E943602F2
:10341000B7CF2091840030918500E09158038E2F22
:10342000EE0F990BFC01EE0FFF1FE80FF91FED5E89
:10343000FB4F81819281820F931F9093890080932B
:103440008800E09158038E2FEE0F990BFC01EE0FD0
:10345000FF1FE80FF91FED5EFB4F808186FF11C053
:10346000E09158038E2FEE0F990BFC01EE0FFF1F1A
:10347000E80FF91FED5EFB4F808161E08F730E94C2
:103480003602FF91EF91DF91CF91BF91AF919F9164
:103490008F917F916F915F914F913F912F910F90FD
:1034A0000FBE0F901F90189580E49CE990938900BF
:1034B000809388008FEF80935803E3CF1F920F9281
:1034C0000FB60F9211242F933F934F935F936F93F7
:1034D0007F938F939F93AF93BF93EF93FF938091CD
:1034E000B900887F803609F44AC0F0F5883209F4C3
:1034F000A7C018F5803109F49BC0B8F4882309F4FB
:10350000F9C0883009F494C0FF91EF91BF91AF9159
:103510009F918F917F916F915F914F913F912F91EB
:103520000F900FBE0F901F901895883109F488C036
:10353000803251F78093310314C0803409F49DC068
:1035400040F48033B9F38833F9F68093310385EC86
:10355000B0C0803509F485C0883509F496C0883438
:1035600099F60E94C818D0CF883909F48CC038F574
:10357000883729F050F4883611F0803729F683E037
:10358000809332031092300357C0883809F47BC00F
:10359000803919F0803809F0B7CF8091300380323C
:1035A00008F071C0E091300381E08E0F809330030A
:1035B0008091BB00F0E0E05FFC4F80833DC0803B2A
:1035C00039F0E0F4803A09F479C0883A09F09CCFE8
:1035D00084E08093320310920F0310920E03E09167
:1035E0006003F0916103099580910E0381110FC072
:1035F00081E080930E031092EE0209C0803C09F432
:10360000A6CF883C09F4A3CF883B09F07DCFE09199
:103610000F0381E08E0F80930F03F0E0E251FD4F26
:1036200080818093BB0090910F0380910E0329C08D
:10363000809157038093BB0085EC8093BC0064CFDE
:103640009091560380915503981758F5E0915603D1
:1036500081E08E0F80935603F0E0EB5CFC4F80819D
:10366000E9CFE091560381E08E0F8093560380915D
:10367000BB00F0E0EB5CFC4F80839091560380919F
:1036800055039817C8F285E8D8CFE091560381E03A
:103690008E0F809356038091BB00F0E0EB5CFC4FF3
:1036A00080838091340381115CCF81E08093330368
:1036B00084EA8093BC001092320326CF85EC80937D
:1036C000BC001092320380913003803230F4E091DC
:1036D0003003F0E0E05FFC4F10826091300370E057
:1036E000E0915E03F0915F0380E193E00995109211
:1036F00030030ACF1092310334CF80912906909184
:103700002A060E947928809131069091320600970E
:1037100011F00C94792808951092690310926803AF
:1037200088EE93E0A0E0B0E080936A0390936B038F
:10373000A0936C03B0936D032DE032E030936703E8
:103740002093660325EC30E03093730320937203DB
:1037500024EC30E0309375032093740320EC30E0C8
:10376000309377032093760321EC30E03093790394
:103770002093780322EC30E030937B0320937A038C
:1037800026EC30E030937D0320937C0310927F037E
:10379000109280031092810310928203109206040B
:1037A000109205048093070490930804A0930904E1
:1037B000B0930A048FE192E0909304048093030491
:1037C000109232061092310610923406109233068F
:1037D000109236061092350690E080E00E945B1849
:1037E0002091310630913206811138C12115310501
:1037F00019F0C9010E947928109232061092310600
:103800001092360610923506109234061092330646
:1038100088E090E0909328068093270662E070E0AD
:103820000E94C1278093290690932A0610922C06A5
:1038300010922B0620EB34E030932E0620932D06B9
:1038400026E930E03093300620932F06FC014096A5
:10385000219331938E179F07D9F78EEA91E0E9E71C
:10386000F4E0DF019C011D9221503040E1F78AE72E
:1038700094E09093C2058093C105809137048C3009
:1038800008F0F6C091E0980F909337048093760487
:1038900090E0FC01EE0FFF1FE80FF91FED5EFB4FFC
:1038A00088EB9BE09283818382E08093750461E0E2
:1038B0000E94820260E0809175040E9436028DE0D1
:1038C0008093740461E00E94820260E0809174043D
:1038D0000E94360210926C0410926D0410926E04D5
:1038E00010926F0482E390E0A0E0B0E08093700457
:1038F00090937104A0937204B093730485E0809355
:10390000680410926A0460E00E94820290916B0445
:1039100080916A04981799F02FB7F89480910F045A
:1039200090911004A0911104B09112042FBF8093C4
:103930006C0490936D04A0936E04B0936F042FB742
:10394000F89480910F0490911004A0911104B0910B
:1039500012042FBF40916C0450916D0460916E046D
:1039600070916F04841B950BA60BB70B40917004EC
:1039700050917104609172047091730420916B04F2
:10398000481759076A077B0710F4209369042093AE
:103990006A0480E090E0A0E0BFE380933804909355
:1039A0003904A0933A04B0933B048DEC9CECACE456
:1039B000BDE380933C0490933D04A0933E04B093F8
:1039C0003F0480E090E0A0EAB0E48093400490934C
:1039D0004104A0934204B09343041092480410920F
:1039E000490410924A0410924B0410924C04109215
:1039F0004D0410924E0410924F0410924404109201
:103A000045041092460410924704109250041092FC
:103A100051041092520410925304109254041092C4
:103A20005504109256041092570410925C041092A0
:103A30005D0410925E0410925F0410926004109274
:103A40006104109262041092630410926404109254
:103A50006504109266041092670408951092360669
:103A60001092350663E572E0C9010E94CF29D0CEDD
:103A70008FEF8093760418CFCF93DF93CDB7DEB767
:103A8000C555D1090FB6F894DEBF0FBECDBF7894EF
:103A900084B5826084BD84B5816084BD85B5826053
:103AA00085BD85B5816085BD80916E008160809304
:103AB0006E0010928100809181008260809381006D
:103AC000809181008160809381008091800081607D
:103AD000809380008091B10084608093B1008091D8
:103AE000B00081608093B00080917A008460809300
:103AF0007A0080917A00826080937A0080917A00C7
:103B0000816080937A0080917A00806880937A0047
:103B10001092C100E0917603F091770382E08083F8
:103B2000E0917203F09173031082E0917403F091BD
:103B300075038FEC808310927E03E0917A03F091FD
:103B40007B0386E08083E0917803F09179038081A4
:103B500080618083E0917803F091790380818860AF
:103B60008083E0917803F09179038081806880837D
:103B7000E0917803F091790380818F7D80838DE2DD
:103B800092E00E94A51581E592E00E94A515E091C2
:103B9000C105F091C205EF5BFE4F89E28083E091A1
:103BA000C105F091C205EE5BFE4F81E08083E0919C
:103BB000C105F091C205ED5BFE4F80E991E0918374
:103BC0008083E091C105F091C205EB5BFE4F83E07D
:103BD00094E09183808310926503109264031092A5
:103BE0006303109262030E94310381E391E090939A
:103BF00061038093600382E391E090935F0380937D
:103C00005E0321E04EEF69E88AE794E00E947608BF
:103C1000811106C040E068E88AE794E00E944B0505
:103C20002E012BE3420E511CA20160EC8AE794E0C6
:103C30000E94C7081092590588EE93E09093B4054E
:103C40008093B30580E991E09093B6058093B50524
:103C500085E89BE6A1E0B0E08093B7059093B805B6
:103C6000A093B905B093BA0584EA90E7A9E0B0E063
:103C70008093420590934305A0934405B093450576
:103C800010929704109298041092990410929A043A
:103C9000CE0101961C01BC018AE794E00E94FD0B55
:103CA000082F81110AC019821A828AE3F101AAE859
:103CB000B4E001900D928A95E1F784E690E090934C
:103CC0009C0580939B0584E893E090939E058093E8
:103CD0009D0584EF91E09093A00580939F0580E07F
:103CE0009AE09093A3058093A20581E08093B205AA
:103CF00041E060E88AE794E00E944B05182F41E01C
:103D00006FEF8AE794E00E944B05182B102B40E0E0
:103D100060E08AE794E00E944B05182BAE01415CFD
:103D20005F4F61E98AE794E00E94C708182B8FADC6
:103D30008093A10541E060E08AE794E00E944B0592
:103D4000182B40E06FEF8AE794E00E944B05182B98
:103D500040E060E88AE794E00E944B05912F982BA1
:103D600010E000E0FF24F394911186C103301105A7
:103D700009F49CC07CF401301105D9F00230110522
:103D800009F491C0F0929F04F801E758FB4FF6A2A6
:103D900080E025C00430110509F48BC020E04FEE0F
:103DA0000530110579F760E68AE794E00E9476080D
:103DB00014C04091AF045091B0046091B10470916F
:103DC000B204B9E07695679557954795BA95D1F7BE
:103DD00064E48AE794E00E9421058823A9F20F5F3A
:103DE0001F4F982F0630110509F0BECF81116EC00C
:103DF0001092A1041092A20422E04EEF60E68AE73E
:103E000094E00E947608811161C01092A30420E121
:103E10004FEE60E68AE794E00E947608811156C072
:103E20001092A40480E090E0A2E1B0E08093AB04A3
:103E30009093AC04A093AD04B093AE048091A00421
:103E400081113AC080E090E4A0E0B0E08093AF043C
:103E50009093B004A093B104B093B20480E090E0DA
:103E6000A3E2B0E08093B3049093B404A093B504AC
:103E7000B093B6041092B7041092B8041092B9042B
:103E80001092BA048FEF809397054FEF61E08AE7B5
:103E900094E00E944B0591E090939905811116C022
:103EA00010927E0513C0F092A1046ECFF092A2048E
:103EB0006BCF20E04EEF77CF40E250E064E48AE73A
:103EC00094E00E942105882309F4BCCF80937904F3
:103ED00049E26AE88091C1059091C2050E944B05B4
:103EE000809379046AE070E080E090E00E94D8025C
:103EF000809179048111C2C0E091C105F091C205A1
:103F0000EF5BFE4F89E2808362E08AE794E00E94E3
:103F1000F615882309F4BBC08093790481110BC086
:103F200080912406813021F480912506813019F09A
:103F30008BEF8093790480917904811104C16090A2
:103F4000C1057090C2058AE3F10111928A95E9F7E3
:103F500025961FAE1EAE259728961FAE289727964A
:103F60001FAE279723961CAE1DAE1EAE1FAE239725
:103F700061E0C3010E94F615F301EE5FFE4F208160
:103F80002D962FAF2D97A22EB12CD12CC12C31966E
:103F9000308129963FAF2997323008F0C5C03130C3
:103FA00009F0BBC081E2A816B104C104D10408F035
:103FB000BBC041E06FEFC3010E944B0581111AC0E5
:103FC00040E06FE4C3010E944B05811113C04CE235
:103FD0006EE4C3010E944B0581110CC040E06FEFFD
:103FE000C3010E944B05811105C044EB66EBC30180
:103FF0000E944B0593012F5E3E4FF90110823196CE
:10400000108231961082319610823196108231964C
:1040100010822996FFAD2997E12CF12C8701FF230F
:1040200009F42CC3D801C7018C549F4FAF4FBF4F29
:10403000F6E0B695A79597958795FA95D1F7880FED
:10404000991F880F991F87509E4FFC018081918195
:10405000A281B381892B8A2B8B2B09F00FC3FCE241
:10406000EF16F1040105110509F408C38FEFE81AF2
:10407000F80A0F4F1F4FD6CF892F28CF84E592E043
:104080000E94A51581E592E00E94A515FFCF8091C1
:104090005A0581112AC063E572E083E096E00E9430
:1040A000CF296BE672E083EC95E00E94CF2963E6AE
:1040B00072E083EE95E00E94CF2943E256E060EC87
:1040C0008AE794E00E94C708811126CFA10162EC23
:1040D0008AE794E00E94C70891E0909324069981B2
:1040E00092959F709093250617CF10915B056CE514
:1040F00075E083E096E00E94CF29112391F21332FC
:1041000038F467E772E0103271F663E872E0CBCF03
:104110006FE872E0173238F6F8CF9DE0A916B104C7
:10412000C104D10408F445CFAE014A5B5F4FBE0124
:10413000615C7F4FC3010E943513982E992009F4CA
:10414000B9C2909279048091790481110CC0AE01BA
:104150004D5B5F4FB1018091C1059091C2050E94F6
:104160003513809379048091790481110DC021E089
:10417000A201BE01615C7F4F8091C1059091C20593
:104180000E94390F8093790480917904811176CF50
:10419000E091C105F091C205108AE091C105F0914E
:1041A000C205FF24F394F5A20091C1051091C20548
:1041B000F80145A956A967A970AD89E0769567957C
:1041C000579547958A95D1F764E4C8010E94210567
:1041D000811102C0F801F6A28093790481114ECFBB
:1041E000E091C105F091C20581E080A7E091C10591
:1041F000F091C205FD9684ED98E0A0E0B0E08083E8
:104200009183A283B38380917904811137CF809108
:1042100076048C3008F051C061E089E00E9482028F
:1042200080917604282F30E0F901EE0FFF1FE20F96
:10423000F31FED5EFB4F9081907C9960908310920C
:104240007704109278042CE0622F0E949B27829FB3
:10425000B001112430E020E0AB01420F531FFA01FE
:10426000EE0FFF1FE40FF51FED5EFB4F908196FDF3
:1042700016C02F5F3F4F2C30310571F781110FC0F1
:104280001092800082E0809381001092850010924D
:104290008400B19A80916F00826080936F00E091FA
:1042A00076048E2F90E0FC01EE0FFF1FE80FF91F40
:1042B000ED5EFB4F80818064808380E090E0A6E12A
:1042C000B3E48093480490934904A0934A04B093C4
:1042D0004B0485E794E00E94920584E794E00E94F5
:1042E00092050BE113E0C8010197F1F760E08091BE
:1042F00075040E94360260E0809174040E943602C8
:10430000C8010197F1F785E794E00E94920584E7E0
:1043100094E00E94920508E512E0B1018091C10588
:104320009091C2050E94AE0F898D8430F1F06985AD
:104330007A8590E080E00E942A256B017C0120E0D4
:1043400030E046E953E40E948627181634F4C12C65
:10435000D12C86E9E82E83E4F82EC701B6010E942D
:10436000502760967FAF6EAF60978091290690913D
:104370002A06E0912B06F0912C06EE0FFF1FE80FA6
:10438000F91F20912D0630912E0640815181241B6A
:10439000350B30932E0620932D0660962EAD3FAD43
:1043A00060973183208320912B0630912C06A90140
:1043B000440F551F840F951FFC018081918140910E
:1043C0002D0650912E06840F951F90932E068093F4
:1043D0002D062F5F3F4F30932C0620932B066091C4
:1043E0002706709128062617370720F010922C0612
:1043F00010922B060E94A72790E080E00E942A25B9
:104400009B01AC012093440430934504409346043F
:10441000509347048090500490905104A09052040F
:10442000B09053048092540490925504A092560484
:10443000B0925704609148047091490480914A04F5
:1044400090914B040E94E3266B017C01C0925004C2
:10445000D0925104E0925204F0925304A5019401C9
:104460000E94E3262B013C014092580450925904CB
:1044700060925A0470925B042091380430913904A0
:1044800040913A0450913B04C701B6010E948B252C
:104490004B015C0180925C0490925D04A0925E04EA
:1044A000B0925F04209160043091610440916204F5
:1044B00050916304C701B6010E94E42620913C0498
:1044C00030913D0440913E0450913F040E948B2561
:1044D0006B017C01C0926004D0926104E09262049E
:1044E000F0926304209140043091410440914204D1
:1044F00050914304C301B2010E948B252B013C0162
:10450000409264045092650460926604709267045D
:10451000A7019601C501B4010E94E426A3019201FE
:104520000E94E42660934C0470934D0480934E04E3
:1045300090934F0470907604FBE0F71508F470C078
:10454000209178046801C21AD10827FDD394CC0CBD
:10455000DD1CCC0CDD1C2091770458E8E52EF12CF5
:10456000E21AF10827FDF394EE0CFF1CEE0CFF1C81
:1045700047010F2C000CAA08BB080E9450279B0182
:10458000770F440B550B2C593F4F4F4F5F4FAAE508
:10459000B0E00E94682628EC30E040E050E00E9445
:1045A0004926225D3F4F4F4F5F4FD90129383105D2
:1045B00014F0A8E8B0E0AE32B10514F4AEE2B0E019
:1045C00096010D2C000C440B550B281939094A098A
:1045D0005B090E94732624EB30E040E050E00E942B
:1045E0004926820E931EA41EB51E8E149F042CF025
:1045F00076018C149D040CF4740122E0E21AF10897
:10460000EE0CFF1C2FB7F894872D90E0FC01EE0F05
:10461000FF1FE80FF91FED5EFB4FF282E1822FBF13
:104620004AE066E970E080E090E00E94B2156EE238
:1046300086E693E00E94C9014AE060E070E0CB01A9
:104640000E94B2154AE060E070E0CB010E94B21512
:1046500084EA92E00E94A51581E592E00E94A515EA
:1046600061E070E080E090E00E94D8020E949D012D
:10467000882309F452CE0E9489184FCE4201A3012B
:10468000495E5E4F29966FAD2997C3010E949E0631
:10469000982E811153CD81E0F301EC5FFE4F8083B2
:1046A00032972D969FAD2D979083319629962FADF9
:1046B00029972083F301E85CFE4F80818111C5C1F9
:1046C0003297A080B18030E020E0C3018B5B9E4F29
:1046D0002A969FAF8EAF2A97F301EF5BFE4F2E967F
:1046E000FFAFEEAF2E9782972C969FAF8EAF2C9791
:1046F000B0976296FFAFEEAF6297029664969FAF57
:104700008EAF649737966696FFAFEEAF669703C09D
:10471000ECEF9E2E9601F501E20FF31F00810023BE
:1047200009F487C091100DCD69018FEFC81AD80A1E
:10473000D501AC0DBD1D6C910F3F09F04DC0690155
:1047400092E0C90ED11CD501AC0DBD1D8C9161301C
:1047500029F198F0623089F16330D1F6690194E073
:10476000C90ED11C238190E0982F8827820F911DBC
:104770006696EEADFFAD66970EC0690194E0C90E76
:10478000D11C238190E0982F8827820F911D62967B
:10479000EEADFFAD629791838083BCCF690194E059
:1047A000C90ED11C238190E0982F8827820F911D7C
:1047B0002C96EEADFFAD2C97EECF690194E0C90EBB
:1047C000D11C238190E0982F8827820F911D649639
:1047D000EEADFFAD6497DFCF053008F099CF2E5FC7
:1047E0003F4FD501A20FB31FF201C02ED12CCF0134
:1047F000841995098C159D051CF48D918193F7CF33
:10480000C20ED31E2A96EEADFFAD2A97E080F1804E
:1048100010E030E020E0A2012E96EEADFFAD2E9725
:1048200080810E94E004892B09F474CF7CEE972EDE
:1048300071CF911086CC44E06AE0C3010E944B0521
:10484000982E81117ECC20E04FEE64E8C3010E94D7
:104850007608982E811175CC84E0F301E253FF4F66
:104860008083C3010E94E408982E81116ACC41E044
:104870006FEFC3010E944B05982EAE014D5B5F4F59
:1048800064E8C3010E94CC07982A40E06FEFC3019F
:104890000E944B05982A09F054CCF301E853FF4FCE
:1048A00025968EAD9FAD259724E0880F991F2A95F8
:1048B000E1F7B0E0A0E080839183A283B383B101EC
:1048C000C3010E94FD0B982E81113BCCAE01495BC8
:1048D0005F4F69E0C3010E94C708982E811131CC57
:1048E00028968FAD2897817028968FAF2897F3016F
:1048F000E25EFE4F80838AE3F101D301509601907E
:104900000D928A95E1F7AE01495B5F4F61E0C3010B
:104910000E94C708982E811114CC8301035E1E4F9C
:1049200028968FAD2897F80180831BAEA20161E025
:10493000C3010E94C708982E8BAD911002CCF82EAF
:10494000E894F4F884FF12C04F2D61E0C3010E9487
:104950004B05982E8111F5CBF801F082F3014289C5
:10496000538964897589C3010E94BC0D1BAEA201E5
:1049700061E0C3010E94C708982E8BAD9110E1CB76
:10498000F82EE894F2F882FF12C04F2D61E0C301C7
:104990000E944B05982E8111D4CBF801F082F301CF
:1049A0004289538964897589C3010E94BC0D83E0E3
:1049B000F301E15EFE4F8083AE014B5B5F4F60E031
:1049C000C3010E947009982E8111BBCB26968FAD32
:1049D0002697F301E852FF4F8083AE014B5B5F4F98
:1049E00061E0C3010E947009982E8111AACB26961E
:1049F0008FAD2697F301ED52FF4F8083A20163E054
:104A0000C3010E94A60B982E81119BCB8BAD9CAD50
:104A1000ADADBEADF301EC52FF4F80839183A28315
:104A2000B383A20164E0C3010E94A60B982E8111FA
:104A300088CBF301E153FF4F8BAD9CADADADBEAD67
:104A400080839183A283B3837CCB80E0A82E81E016
:104A5000B82E39CEE89409C097FB3EF49095809526
:104A6000709561957F4F8F4F9F4F9923A9F0F92F34
:104A700096E9BB279395F695879577956795B795B2
:104A8000F111F8CFFAF4BB0F11F460FF1BC06F5F98
:104A90007F4F8F4F9F4F16C0882311F096E911C0AA
:104AA000772321F09EE8872F762F05C0662371F0CB
:104AB00096E8862F70E060E02AF09A95660F771FDF
:104AC000881FDAF7880F9695879597F90895990FBB
:104AD0000008550FAA0BE0E8FEEF16161706E807C8
:104AE000F907C0F012161306E407F50798F0621BE9
:104AF000730B840B950B39F40A2661F0232B242BBE
:104B0000252B21F408950A2609F4A140A6958FEFDC
:104B1000811D811D08950E949E250C940F260E94E0
:104B2000012638F00E94082620F0952311F00C94FD
:104B3000F8250C94FE2511240C9443260E9420266F
:104B400070F3959FC1F3950F50E0551F629FF001E0
:104B5000729FBB27F00DB11D639FAA27F00DB11DF9
:104B6000AA1F649F6627B00DA11D661F829F222782
:104B7000B00DA11D621F739FB00DA11D621F839F09
:104B8000A00D611D221F749F3327A00D611D231FDF
:104B9000849F600D211D822F762F6A2F11249F572D
:104BA00050409AF0F1F088234AF0EE0FFF1FBB1F30
:104BB000661F771F881F91505040A9F79E3F5105EF
:104BC00080F00C94F8250C9443265F3FE4F3983E64
:104BD000D4F3869577956795B795F795E7959F5F99
:104BE000C1F7FE2B880F911D9695879597F908952B
:104BF00097F99F6780E870E060E008959FEF80EC90
:104C0000089500240A941616170618060906089532
:104C100000240A9412161306140605060895092E98
:104C20000394000C11F4882352F0BB0F40F4BF2B07
:104C300011F460FF04C06F5F7F4F8F4F9F4F089547
:104C400057FD9058440F551F59F05F3F71F047953D
:104C5000880F97FB991F61F09F3F79F08795089522
:104C6000121613061406551FF2CF4695F1DF08C041
:104C7000161617061806991FF1CF8695710561055E
:104C800008940895E894BB2766277727CB0197F906
:104C90000895052E97FB1EF400940E94602657FD90
:104CA00007D00E94B22607FC03D04EF40C94602675
:104CB00050954095309521953F4F4F4F5F4F089548
:104CC00090958095709561957F4F8F4F9F4F089578
:104CD0000E94D426A59F900DB49F900DA49F800D97
:104CE000911D11240895B7FF0C9468260E94682630
:104CF000821B930B08952F923F924F925F926F9277
:104D00007F928F929F92AF92BF92CF92DF92EF925B
:104D1000FF920F931F93CF93DF93CDB7DEB7CA1BDC
:104D2000DB0B0FB6F894DEBF0FBECDBF09942A8807
:104D3000398848885F846E847D848C849B84AA84AF
:104D4000B984C884DF80EE80FD800C811B81AA813C
:104D5000B981CE0FD11D0FB6F894DEBF0FBECDBF07
:104D6000ED010895A1E21A2EAA1BBB1BFD010DC087
:104D7000AA1FBB1FEE1FFF1FA217B307E407F5070B
:104D800020F0A21BB30BE40BF50B661F771F881FE7
:104D9000991F1A9469F760957095809590959B017D
:104DA000AC01BD01CF010895A29FB001B39FC00126
:104DB000A39F700D811D1124911DB29F700D811D47
:104DC0001124911D08955058BB27AA270E94FB2645
:104DD0000C940F260E94012638F00E94082620F02D
:104DE00039F49F3F19F426F40C94FE250EF4E09557
:104DF000E7FB0C94F825E92F0E94202658F3BA17F8
:104E0000620773078407950720F079F4A6F50C94E0
:104E100042260EF4E0950B2EBA2FA02D0B01B901FE
:104E200090010C01CA01A0011124FF27591B99F020
:104E3000593F50F4503E68F11A16F040A22F232F2C
:104E4000342F4427585FF3CF469537952795A7957C
:104E5000F0405395C9F77EF41F16BA0B620B730B23
:104E6000840BBAF09150A1F0FF0FBB1F661F771F94
:104E7000881FC2F70EC0BA0F621F731F841F48F449
:104E8000879577956795B795F7959E3F08F0B0CFD2
:104E90009395880F08F09927EE0F979587950895B9
:104EA0000E9457276894B1110C94432608950E94DC
:104EB000282688F09F5798F0B92F9927B751B0F05E
:104EC000E1F0660F771F881F991F1AF0BA95C9F78E
:104ED00014C0B13091F00E944226B1E008950C94C4
:104EE0004226672F782F8827B85F39F0B93FCCF377
:104EF000869577956795B395D9F73EF4909580950B
:104F0000709561957F4F8F4F9F4F08950E94672541
:104F100008F48FEF0895DB018F939F930E9468261A
:104F2000BF91AF91A29F800D911DA39F900DB29F45
:104F3000900D11240895991B79E004C0991F9617CC
:104F400008F0961B881F7A95C9F780950895AA1BCB
:104F5000BB1B51E107C0AA1FBB1FA617B70710F064
:104F6000A61BB70B881F991F5A95A9F78095909596
:104F7000BC01CD010895EE0FFF1F0590F491E02DC7
:104F800009940F931F93CF93DF93869F8001879F90
:104F9000100D969F100D1124C8010E94DD27EC0111
:104FA000009729F0A80170E060E00E94C829CE01B6
:104FB000DF91CF911F910F9108950F931F93CF937E
:104FC000DF938230910510F482E090E0E0913906A1
:104FD000F0913A0630E020E0B0E0A0E0309799F49C
:104FE0002115310509F44AC0281B390B243031053D
:104FF000D8F58A819B816115710589F1FB01938345
:105000008283FE0111C040815181028113814817C2
:105010005907E0F04817590799F4109761F0129674
:105020000C93129713961C933296CF01DF91CF9178
:105030001F910F9108950093390610933A06F4CF0B
:105040002115310551F04217530738F0A901DB0152
:105050009A01BD01DF01F801C1CFEF01F9CF9093B3
:105060003A0680933906CDCFFE01E20FF31F8193FC
:1050700091932250310939832883D7CF2091370665
:1050800030913806232B41F42091F5013091F6013F
:1050900030933806209337062091F3013091F401C4
:1050A0002115310541F42DB73EB74091F7015091DC
:1050B000F801241B350BE0913706F0913806E21712
:1050C000F307A0F42E1B3F0B2817390778F0AC012B
:1050D0004E5F5F4F2417350748F04E0F5F1F509308
:1050E000380640933706819391939FCFF0E0E0E03C
:1050F0009CCFCF93DF930097E9F0FC0132971382A6
:105100001282A0913906B0913A06ED0130E020E01C
:105110001097A1F420813181820F931F20913706CF
:10512000309138062817390709F061C0F093380626
:10513000E0933706DF91CF910895EA01CE17DF079C
:10514000E8F54A815B819E0141155105B1F7E901FE
:10515000FB83EA8349915991C40FD51FEC17FD07D2
:1051600061F4808191810296840F951FE9019983F2
:105170008883828193819B838A83F0E0E0E01296AA
:105180008D919C9113970097B9F52D913C911197B2
:10519000CD010296820F931F209137063091380679
:1051A0002817390739F6309751F510923A061092C0
:1051B0003906B0933806A0933706BCCFD383C28399
:1051C00040815181840F951FC817D90761F44E5F44
:1051D0005F4F88819981480F591F518340838A818D
:1051E0009B81938382832115310509F0B0CFF09321
:1051F0003A06E09339069ECFFD01DC01C0CF138251
:105200001282D7CFB0E0A0E0E8E0F9E20C947D266E
:105210008C01009751F4CB010E94DD278C01C8015D
:10522000CDB7DEB7E0E10C949926FC01E60FF71F3D
:105230009C0122503109E217F30708F49DC0D901FF
:10524000CD91DC911197C617D70798F0C530D105DD
:1052500030F3CE0104978617970708F3C61BD70BC8
:105260002297C193D1936D937C93CF010E947928AB
:10527000D6CF5B01AC1ABD0A4C018C0E9D1EA091CD
:105280003906B0913A06512C412CF12CE12C1097A3
:1052900031F580913706909138068815990509F007
:1052A0005CC04616570608F058C08091F3019091F3
:1052B000F401009741F48DB79EB74091F7015091EA
:1052C000F801841B950BE817F90708F055C0F09317
:1052D0003806E0933706F90171836083A0CF8D9182
:1052E0009C91119712966C90129713967C9013973D
:1052F000A815B90559F56C0142E0C40ED11CCA14B9
:10530000DB0420F1AC014A195B09DA01129615970A
:1053100080F06282738251834083D9016D937C93C4
:10532000E114F10471F0D7011396FC93EE931297F8
:1053300076CF22968C0F9D1FF90191838083F30114
:10534000EFCFF0933A06E093390669CF4816590635
:1053500008F42C017D01D3019ACFCB010E94DD27F7
:105360007C01009749F0AE01B8010E94BF29C80135
:105370000E947928870153CF10E000E050CFFB0155
:10538000DC0102C001900D9241505040D8F70895C1
:10539000DC0101C06D9341505040E0F70895FB01DE
:1053A000DC0101900D920020E1F7089510E0CDE5B9
:1053B000D0E004C0FE010E94BB272196CE35D10764
:1053C000C9F7F894FFCF01FF0101000001FF0001C0
:1053D00009000110000111000124010125FF0175E0
:1053E0000001FF01014E2C01480001302001FF00A7
:1053F00001300901540001310401320301408301ED
:1054000046250160000127000150060151000152AC
:1054100096015608015730016100016200016400E5
:105420000165000166A001FF01012232014714015C
:1054300049FF014A0001FF00017A0A017B0001785F
:105440002101FF010123340142000144FF014526EF
:10545000014605014040010E0601201A01434001AA
:10546000FF0001340301354401FF01013104014B08
:1054700009014C05014D0401FF00014400014520D4
:10548000014708014828016700017004017101010A
:1054900072FE01760001770001FF01010D0101FF9D
:1054A000000180010101F801FF01018E01010001ED
:1054B00001FF0001800000000000003B0680000AA0
:1054C00000000005000000000000000500000000D2
:1054D000000000C90133016001160291016F0183D0
:1054E0000100000000C7039A03DD047003930380EA
:1054F00003710353502C206D762C2070765F6E6FF5
:1055000066696C7465722C2070765F66696C746570
:10551000722C20657272000D0A004661696C656428
:1055200020746F20626F6F7420564C35334C3058A6
:1055300000564C35334C30582054533000564C35BF
:10554000334C30582054533100564C35334C30587E
:105550002054533200564C35334C3058204553318B
:0C556000206F72206C61746572002C00DA
:107E0000112484B714BE81FFF0D085E080938100F7
:107E100082E08093C00088E18093C10086E0809377
:107E2000C20080E18093C4008EE0C9D0259A86E02C
:107E300020E33CEF91E0309385002093840096BBD3
:107E4000B09BFECF1D9AA8958150A9F7CC24DD24C4
:107E500088248394B5E0AB2EA1E19A2EF3E0BF2EE7
:107E6000A2D0813461F49FD0082FAFD0023811F036
:107E7000013811F484E001C083E08DD089C08234E0
:107E800011F484E103C0853419F485E0A6D080C0E4
:107E9000853579F488D0E82EFF2485D0082F10E0AE
:107EA000102F00270E291F29000F111F8ED06801E7
:107EB0006FC0863521F484E090D080E0DECF843638
:107EC00009F040C070D06FD0082F6DD080E0C81688
:107ED00080E7D80618F4F601B7BEE895C0E0D1E017
:107EE00062D089930C17E1F7F0E0CF16F0E7DF06D8
:107EF00018F0F601B7BEE89568D007B600FCFDCFD4
:107F0000A601A0E0B1E02C9130E011968C91119780
:107F100090E0982F8827822B932B1296FA010C0160
:107F200087BEE89511244E5F5F4FF1E0A038BF0790
:107F300051F7F601A7BEE89507B600FCFDCF97BE46
:107F4000E89526C08437B1F42ED02DD0F82E2BD052
:107F50003CD0F601EF2C8F010F5F1F4F84911BD097
:107F6000EA94F801C1F70894C11CD11CFA94CF0C13
:107F7000D11C0EC0853739F428D08EE10CD085E9AC
:107F80000AD08FE07ACF813511F488E018D01DD067
:107F900080E101D065CF982F8091C00085FFFCCF94
:107FA0009093C60008958091C00087FFFCCF809118
:107FB000C00084FD01C0A8958091C6000895E0E648
:107FC000F0E098E1908380830895EDDF803219F02E
:107FD00088E0F5DFFFCF84E1DECF1F93182FE3DFCA
:107FE0001150E9F7F2DF1F91089580E0E8DFEE27F6
:047FF000FF270994CA
:027FFE00040479
:00000001FF
