:100000000C9462000C948A000C948A000C948A0070
:100010000C948A000C948A000C948A000C948A0038
:100020000C948A000C948A000C948A000C948A0028
:100030000C948A000C948A000C948A000C948A0018
:100040000C94CD020C948A000C949B020C947502C3
:100050000C948A000C948A000C948A000C948A00F8
:100060000C948A000C948A000000000023002600F3
:10007000290000000008000201000003040700003E
:1000800000000000000000000000250028002B00F8
:1000900000000000240027002A00040404040404D3
:1000A0000404020202020202030303030303010227
:1000B00004081020408001020408102001020408F6
:1000C0001020170311241FBECFEFD8E0DEBFCDBF35
:1000D00011E0A0E0B1E0EAE7FAE002C005900D927D
:1000E000A037B107D9F722E0A0E7B1E001C01D9227
:1000F000A637B207E1F710E0C2E6D0E004C02197CE
:10010000FE010E943505C136D107C9F70E9473036D
:100110000C943B050C940000AF92BF92CF92DF92FB
:10012000EF92FF920F931F93CF93DF936C017B01AC
:100130008B01040F151FEB015E01AE18BF08C0173D
:10014000D10759F06991D601ED91FC910190F081B0
:10015000E02DC6010995892B79F7C501DF91CF9173
:100160001F910F91FF90EF90DF90CF90BF90AF90D5
:100170000895FC01538D448D252F30E0842F90E0AD
:10018000821B930B541710F0CF9608950197089592
:10019000FC01918D828D981761F0A28DAE0FBF2F5B
:1001A000B11D5D968C91928D9F5F9F73928F90E0B1
:1001B00008958FEF9FEF0895FC01918D828D981720
:1001C00031F0828DE80FF11D858D90E008958FEF5D
:1001D0009FEF0895FC01918D228D892F90E0805C26
:1001E0009F4F821B91098F739927089589E791E0AA
:1001F0000E94EA0021E0892B09F420E0822F089573
:1002000080E090E0892B29F00E94F60081110C9487
:1002100000000895FC01A48DA80FB92FB11DA35AA9
:10022000BF4F2C91848D90E001968F739927848F16
:10023000A689B7892C93A089B1898C918370806439
:100240008C93938D848D981306C00288F389E02DDA
:1002500080818F7D80830895EF92FF920F931F938B
:10026000CF93DF93EC0181E0888F9B8D8C8D981369
:100270001AC0E889F989808185FF15C09FB7F89475
:10028000EE89FF896083E889F989808183708064C1
:1002900080839FBF81E090E0DF91CF911F910F910C
:1002A000FF90EF900895F62E0B8D10E00F5F1F4F1B
:1002B0000F731127E02E8C8D8E110CC00FB607FC2A
:1002C000FACFE889F989808185FFF5CFCE010E94B8
:1002D0000A01F1CFEB8DEC0FFD2FF11DE35AFF4F1B
:1002E000F0829FB7F8940B8FEA89FB898081806246
:1002F000CFCFCF93DF93EC01888D8823B9F0AA8903
:10030000BB89E889F9898C9185FD03C0808186FDD0
:100310000DC00FB607FCF7CF8C9185FFF2CF80811F
:1003200085FFEDCFCE010E940A01E9CFDF91CF9189
:10033000089590E0FC01EE58FF4F2491FC01E25536
:10034000FF4F3491FC01E656FF4FE491EE23C1F1DB
:10035000222339F02330E9F090F4213001F12230EA
:1003600011F1F0E0EE0FFF1FE859FF4FA591B49196
:10037000EC91E32381E090E029F580E008952730B7
:10038000A9F02830C9F0243061F7809180008F7D7A
:1003900003C0809180008F7780938000E2CF84B586
:1003A0008F7784BDDECF84B58F7DFBCF8091B00089
:1003B0008F778093B000D5CF8091B0008F7DF9CF3B
:1003C00080E090E008953FB7F89480917501909196
:1003D0007601A0917701B091780126B5A89B05C060
:1003E0002F3F19F00196A11DB11D3FBFBA2FA92FB4
:1003F000982F8827BC01CD01620F711D811D911DB1
:1004000042E0660F771F881F991F4A95D1F708951C
:100410002FB7F8946091710170917201809173010E
:10042000909174012FBF0895CF92DF92EF92FF92C7
:100430000E9408026B017C0180914202909143026C
:10044000A0914402B0914502B701A601481B590B87
:100450006A0B7B0B80913E0290913F02A09140027B
:10046000B091410284179507A607B707B0F48091B1
:1004700036020E94990121E0892B09F420E0809145
:100480003702281751F020933702C0924202D092CF
:100490004302E0924402F0924502FF90EF90DF9019
:1004A000CF900895FB0101900020E9F73197AF014B
:1004B000461B570BDC01ED91FC910280F381E02D8E
:1004C00009940F931F93CF93DF93EC010E94520284
:1004D0008C0162E171E0CE010E945202800F911FF7
:1004E000DF91CF911F910F9108951F920F920FB638
:1004F0000F9211242F933F934F935F936F937F93AA
:100500008F939F93AF93BF93EF93FF9389E791E00E
:100510000E940A01FF91EF91BF91AF919F918F913E
:100520007F916F915F914F913F912F910F900FBEEF
:100530000F901F9018951F920F920FB60F921124D3
:100540002F938F939F93EF93FF93E0918901F09105
:100550008A018081E0918F01F091900182FD1BC0A2
:100560009081809192018F5F8F7320919301821708
:1005700041F0E0919201F0E0E758FE4F958F8093B3
:100580009201FF91EF919F918F912F910F900FBE4C
:100590000F901F9018958081F4CF1F920F920FB685
:1005A0000F9211242F933F938F939F93AF93BF93F9
:1005B0008091710190917201A0917301B0917401C9
:1005C0003091700123E0230F2D3758F50196A11DBE
:1005D000B11D209370018093710190937201A093DB
:1005E0007301B09374018091750190917601A0918F
:1005F0007701B09178010196A11DB11D809375011D
:1006000090937601A0937701B0937801BF91AF9159
:100610009F918F913F912F910F900FBE0F901F9040
:10062000189526E8230F0296A11DB11DD2CFCF93B6
:10063000DF93E9E7F1E01382128288EE93E0A0E015
:10064000B0E084839583A683B78384E091E09183AF
:10065000808385EC90E09587848784EC90E0978791
:10066000868780EC90E0918B808B81EC90E0938B7F
:10067000828B82EC90E0958B848B86EC90E0978B5C
:10068000868B118E128E138E148EC4E6D2E082E019
:100690008A8382E390E0A0E0B0E08A879B87AC8702
:1006A000BD8781E090E0998388830E9408026E876D
:1006B0007F87888B998BE6E1F2E011AE10AE81E086
:1006C00082AF13AE88EB9BE0909357028093560263
:1006D00082E1FE01A4E3B2E001900D928A95E1F778
:1006E000DF91CF910895789484B5826084BD84B5FC
:1006F000816084BD85B5826085BD85B5816085BD1D
:1007000080916E00816080936E00109281008091D4
:10071000810082608093810080918100816080935C
:100720008100809180008160809380008091B10081
:1007300084608093B1008091B00081608093B000AC
:1007400080917A00846080937A0080917A00826040
:1007500080937A0080917A00816080937A00809102
:100760007A00806880937A001092C100E09189013C
:10077000F0918A0182E08083E0918501F091860109
:100780001082E0918701F09188018FEC80831092B4
:100790009101E0918D01F0918E0186E08083E091DE
:1007A0008B01F0918C01808180618083E0918B01CD
:1007B000F0918C01808188608083E0918B01F091C1
:1007C0008C01808180688083E0918B01F0918C01A5
:1007D00080818F7D808389E791E090934C028093A4
:1007E0004B0220913402309135028091360290E024
:1007F000FC01E255FF4F2230310509F08CC02491F5
:1008000086569F4FFC0184918823C1F090E0880FA9
:10081000991FFC01E057FF4FC591D491FC01EA57A5
:10082000FF4FA591B4919FB7F8943881822F80959E
:1008300083238883EC91E22BEC939FBF8091360257
:100840000E94990121E0892B09F420E020933702CE
:1008500010924F0210924E0281E0809350020E944B
:10086000E3014B015C0194E6C92ED12CE12CF12C63
:100870000E94E301681979098A099B09683E73405F
:1008800081059105A8F3F1E0CF1AD108E108F1083C
:1008900028EE820E23E0921EA11CB11CC114D104CB
:1008A000E104F10429F7D1E000E010E0C1E0EE241A
:1008B000E394F12C0E94080220914E0230914F02E5
:1008C0002115310509F446C02130310509F489C0EC
:1008D0008090520290905302A0905402B090550222
:1008E0009B01AC01281939094A095B0949015A01E0
:1008F00039EE831633E09306A104B10408F465C011
:100900006093520270935302809354029093550265
:1009100069E571E0A3C0249186569F4FFC01849144
:10092000882309F48BCF90E0880F991FFC01E057D2
:10093000FF4FC591D491FC01EA57FF4FA591B491A7
:100940009FB7F8948881E22FE0958E2388838C915D
:10095000E82372CF809150028823A1F010925002B8
:100960000E940802609352027093530280935402D3
:100970009093550265E171E080914B0290914C0299
:100980000E9461020E9414022091340230913502CB
:1009900080913702232B09F08D27882351F0C093D3
:1009A000510267E271E080914B0290914C020E94EB
:1009B000610280915102882341F010925102C0934C
:1009C0005002F0924F02E0924E020115110509F417
:1009D00071CF0E94F600882309F46CCF0E940000BA
:1009E00069CF809150028823A1F0109250020E949A
:1009F00008026093520270935302809354029093C2
:100A000055026CE371E080914B0290914C020E9480
:100A100061020E94140220913402309135028091CB
:100A20003702232B09F08D27882351F0C093510200
:100A300067E271E080914B0290914C020E9461024A
:100A400080915102882309F210925102C093500202
:100A500010924F0210924E026BE471E080914B02B3
:100A600090914C020E946102B0CFEE0FFF1F0590E3
:0A0A7000F491E02D0994F894FFCFF3
:100A7A00000000002C018C00B9007901EA00C800CE
:100A8A00DC000D0A0049444C453A205374617465F0
:100A9A0020456E7465720049444C453A204275748B
:100AAA00746F6E207072657373656400413A2053E7
:100ABA007461746520456E74657200413A205374FE
:100ACA00617465204578697400556E6B6E6F776E38
:100ADA0020737461746520726571756573740000A2
:00000001FF
